:10000000001001107DA10000E9A10000E9A100009D
:1000100000000000000000000000000000000000E0
:1000200000000000000000000000000000000000D0
:10003000000000000000000000000000154100006A
:10004000E9A10000E9A10000E9A10000E9A1000088
:10005000E9A10000E9A10000E9A10000E9A1000078
:10006000E9A10000E9A10000E9A1000080B584B089
:1000700000AF1B4AFB1D12781A70FB1D1B78012B69
:100080002AD1184AFB1D12781A70FB1DFA1D12782E
:1000900001210A431A70134AFB1D1B781370124B7F
:1000A000F3221A70104BE3221A706423FB600AE0FB
:1000B0000E4BBB60C046BB685A1EBA60002BFAD11B
:1000C000FB68013BFB60FB68002BF1DC064BF32275
:1000D0001A70034B02221A70C046BD4604B080BDA0
:1000E0003F4B00107F8900107E8900101027000010
:1000F00080B500AF274B180006F0DCFAC04609F0C7
:100100007FFDC04609F0B0FD02F0C6FC224B1B7813
:10011000DBB2012B35D002DC002B03D038E0022B00
:1001200020D035E006F0E4FC1C4B1B7E002B15D0E4
:1001300003F032FF06F020F907F018FA09F086F80C
:1001400001F050FF02F0DAFB0AF020FB09F0C4FADC
:1001500002F0A8FCFFF78AFF0AF084FC402006F0BA
:10016000D9FD15E006F088FC031E06D072B602F039
:1001700003F9094B03221A700AE0074B00221A7098
:1001800006E072B602F000F9034B03221A70C04673
:10019000B7E7C0460005011034430010B008011055
:1001A00080B582B000AF0200FB1D1A70C046BD468C
:1001B00002B080BD80B582B000AF0200FB1D1A7096
:1001C000FB1D1B78002B02D0012B02D002E0C046A1
:1001D00000E0C046C046BD4602B080BD80B582B0DA
:1001E00000AF0200FB1D1A70FB1D1B78002B02D014
:1001F000012B02D002E0C04600E0C046C046BD462A
:1002000002B080BD80B500AF01F0C8FE031E09D06A
:10021000064B1B78DBB2332B02D002F063F901E00E
:1002200002F080F9C046BD4680BDC046D5490010E9
:1002300080B500AF064B1B78DBB2332B02D002F047
:1002400041F901E002F076F9C046BD4680BDC046E6
:10025000D549001080B500AF084B1B681B78012BF7
:1002600009D9074B1B78DBB2332B02D002F02AF9F5
:1002700001E002F04FF9C046BD4680BD38050110CF
:10028000D549001080B500AF01F088FE031E1AD0DA
:100290000E4B1B78DBB2332B12D00D4B1B681B7837
:1002A000002B02D102F0F4F80EE0094B1B681B781A
:1002B000012B02D102F0FEF806E002F003F903E0A0
:1002C00002F020F900E0C046BD4680BDD5490010CF
:1002D0003805011080B582B000AF0200FB1D1A7016
:1002E000FB1D1B7800220021180000F05FF8C046BB
:1002F000BD4602B080BDC04680B582B000AF0200EE
:10030000FB1D1A70FB1D1B7800220121180000F054
:100310004DF8C046BD4602B080BDC04680B582B033
:1003200000AF0200FB1D1A70FB1D1B78002202218A
:10033000180000F03BF8C046BD4602B080BDC04684
:1003400080B582B000AF0200FB1D1A70FB1D1B7848
:10035000002B10D10A4B1B7E042B0CD1094B1B78B0
:10036000DBB21A00F0231340502B02D102F064F9E3
:1003700001E001F0C1FFC046BD4602B080BDC046ED
:10038000B0080110B249001080B582B000AF020081
:10039000FB1D1A70FB1D1B7800220321180000F0C2
:1003A00005F8C046BD4602B080BDC04690B585B0D8
:1003B00000AF040008001100FB1D221C1A70BB1DB9
:1003C000021C1A707B1D0A1C1A700E23FC187B1D60
:1003D0001A78BB1D1978FB1D1B78180000F004F972
:1003E000030023700F23FB1800221A70C046C0467A
:1003F000354BDB7E162B27D10E23FB181B78092BE0
:1004000006D10E23FB181B78180003F021F858E0E2
:100410000E23FB181B78042B04D00E23FB181B782B
:10042000052B05D10E23FB181B78180003F010F8DC
:100430007B1D1B7801225340DBB2002B23D00F23FE
:10044000FB1801221A701EE00E23FB181B781800FF
:1004500002F0FEFF7B1D1B7801225340DBB2002B14
:1004600011D0194BDB7E172B0DD10E23FB181B78F7
:10047000042B04D00E23FB181B78052B03D10F236C
:10048000FB1801221A700F23FB181B78002B18D0C1
:10049000BB1D1B78012B0BD002DC002B05D010E01C
:1004A000022B08D0032B09D00BE002F02BF808E058
:1004B00002F030F805E002F035F802E002F03AF818
:1004C000C046BD4605B090BDB008011084B090B5DF
:1004D00083B000AF18243C1920606160A260E36023
:1004E000FB1D00221A703423FB181B78012B12D03D
:1004F00002DC002B05D02FE0022B17D0032B20D0DD
:100500002AE03B001822BA18116819609188998076
:1005100092799A7120E039001823FA18072308000D
:10052000D318072219000AF0DDFE15E03900182360
:10053000FA180E230800D318072219000AF0D2FE79
:100540000AE039001823FA1815230800D3180722E7
:1005500019000AF0C7FEC04601F020FD031E0DD1B0
:1005600001F02EFD031E04D1FB1D3A0012781A7013
:100570002FE0FB1D3A0052781A702AE0194B1B68D5
:100580001B78002B18D0174B1B681B78012B04D14C
:10059000FB1D3A0012791A701BE0124B1B681B7886
:1005A000022B04D1FB1D3A0052791A7011E0FB1D99
:1005B0003A0092791A700CE002F030FF031E04D06A
:1005C000FB1D3A00D2781A7003E0FB1D3A009278C6
:1005D0001A70FB1D1B781800BD4603B090BC08BC08
:1005E00004B0184738050110F0B59FB004AF0400FF
:1005F000080011000F23FB18221C1A700E23FB1891
:10060000021C1A700D23FB180A1C1A705F230822A3
:100610009446BC44634400221A705D230822944629
:10062000BC44634455221A705E2308229446BC449D
:10063000634400221A701EE05E2308229446BC44E4
:1006400063441A78DA4913009B009B181A019B181F
:100650005B5C0F22BA1812789A421AD05E230822E5
:100660009446BC4463441A785E2308218C46BC44FB
:10067000634401321A705E230822BA18D2185D232F
:1006800008218C46BC44634412781B789A42D3D329
:1006900000E0C0465E230822BA18D2185D23082164
:1006A0008C46BC44634412781B789A4206D35F237D
:1006B00008229446BC4463441B78D5E15E2308229B
:1006C0009446BC4463441A78082308217918C81852
:1006D000B74913009B009B181A019B18CB18552291
:1006E00019000AF0FFFDC046C046B24B1B78DBB2D2
:1006F000022B00D0AAE00D23FB181B78002B52D050
:100700005F230822BA18D418082308229446BC4450
:1007100063441D220E21791809780391995C981879
:10072000407800020143981880780004014398182B
:10073000C07800060143B960991808794D792D02F7
:1007400028438D792D042843C9790906014379602E
:100750009918087A4D7A2D0228438D7A2D04284362
:10076000C97A090601430E009918087B4D7B2D02BA
:1007700028438D7B2D042843C97B090601430D00C6
:1007800010219B185B186A46100019000C231A00F0
:100790000AF0A8FDB868796832002B00FFF796FED2
:1007A000030023705AE15F230822BA18D4180823E3
:1007B00008229446BC44634439220E2179180978F2
:1007C0000391995C9818407800020143981880784A
:1007D000000401439818C07800060143B9609918D5
:1007E00008794D792D0228438D792D042843C97944
:1007F0000906014379609918087A4D7A2D02284339
:100800008D7A2D042843C97A090601430E009918F0
:10081000087B4D7B2D0228438D7B2D042843C97B0B
:10082000090601430D0010219B185B186A46100051
:1008300019000C231A000AF055FDB86879683200D7
:100840002B00FFF743FE0300237007E1594B1B7891
:10085000DBB2012B00D0AFE00D23FB181B78002B7F
:1008600052D05F230822BA18D418082308229446CD
:10087000BC44634439220E21791809780391995CAC
:1008800098184078000201439818807800040143CA
:100890009818C07800060143B960991808794D7915
:1008A0002D0228438D792D042843C9790906014377
:1008B00079609918087A4D7A2D0228438D7A2D0493
:1008C0002843C97A090601430E009918087B4D7B1D
:1008D0002D0228438D7B2D042843C97B0906014343
:1008E0000D0010219B185B186A46100019000C239C
:1008F0001A000AF0F7FCB868796832002B00FFF79D
:10090000E5FD03002370A9E05F230822BA18D4187C
:10091000082308229446BC4463441D220E21791802
:1009200009780391995C981840780002014398185F
:100930008078000401439818C07800060143B9602C
:10094000991808794D792D0228438D792D04284373
:10095000C9790906014379609918087A4D7A2D0200
:1009600028438D7A2D042843C97A090601430E00D5
:100970009918087B4D7B2D0228438D7B2D0428433D
:10098000C97B090601430D0010219B185B186A46BC
:10099000100019000C231A000AF0A4FCB86879684A
:1009A00032002B00FFF792FD0300237056E0C04693
:1009B000ECB30000CB4B00105F230822BA18D41808
:1009C000082308229446BC44634401220E2179186E
:1009D00009780391995C98184078000201439818AF
:1009E0008078000401439818C07800060143B9607C
:1009F000991808794D792D0228438D792D042843C3
:100A0000C9790906014379609918087A4D7A2D024F
:100A100028438D7A2D042843C97A090601430E0024
:100A20009918087B4D7B2D0228438D7B2D0428438C
:100A3000C97B090601430D0010219B185B186A460B
:100A4000100019000C231A000AF04CFCB8687968F1
:100A500032002B00FFF73AFD030023705F230822CA
:100A60009446BC4463441B781800BD461BB0F0BDDF
:100A700080B582B000AF0200FB1D1A70BB1D0A1CBE
:100A80001A70C046BB1D1B780B2B33D89A001B4B2A
:100A9000D3181B689F46FB1D1B781800FFF78AFBC5
:100AA00001F004FB26E0FB1D1B781800FFF796FB06
:100AB00001F0FCFA1EE0FB1D1B781800FFF70AFC92
:100AC00018E0FB1D1B781800FFF716FC12E0FB1D59
:100AD0001B781800FFF722FC0CE0FB1D1B781800A8
:100AE000FFF75EFB06E0FB1D1B781800FFF74CFCD0
:100AF00000E0C046C046BD4602B080BD44B4000020
:100B0000B0B582B000AF02003960FB1D1A70FB1D4A
:100B10001B787F2B32D92F4CFB1D1B781A000F231B
:100B20001340083B99082B4AFB1D1B7818000F2324
:100B30000340083B9B0806339B00D31804331B6813
:100B4000FA1D1278100003220240D200FF209040CC
:100B50000200D2431A403B689B01FF201840FB1D56
:100B60001B781D0003232B40DB00984003001A4331
:100B70008B1D9B00E31804331A6027E0164CFB1D05
:100B80001B785BB29B081449FA1D127852B2920886
:100B9000C03292005258F91D097808000321014023
:100BA000C900FF2088400100C94311403A68920102
:100BB000FF201040FA1D1278150003222A40D200AF
:100BC000904002000A43C0339B001A51C046BD4604
:100BD00002B0B0BD00ED00E000E100E080B582B001
:100BE00000AF78607B68013B0C4A934201D9012336
:100BF00010E00B4B7A68013A5A6001235B420321F3
:100C00001800FFF77DFF064B00229A60044B072275
:100C10001A6000231800BD4602B080BDFFFFFF0030
:100C200010E000E080B500AFC046C046C046C046F8
:100C3000C046C046BD4680BD80B500AF074B03220D
:100C40001A76064B05225A76044B05229A76034BF8
:100C50000522DA76C046BD4680BDC046B008011008
:100C600080B582B000AF786001F0F8FCC046BD46A8
:100C700002B080BD80B500AF074B1B78DBB2332BD1
:100C800007D0064A9623D90005481300812203F0B5
:100C9000B1F8C046BD4680BDD5490010610C0000CA
:100CA0000C08011080B582B000AF786001F076F9D1
:100CB000031E02D0022006F059FAC046BD4602B01B
:100CC00080BDC04680B500AFC046BD4680BDC046B1
:100CD00080B582B000AF7860044BDB7E142B01D16D
:100CE000FFF7F0FFC046BD4602B080BDB00801105E
:100CF00080B584B000AF7860044A0F23FB181278E7
:100D00001A70C046BD4604B080BDC046C146001042
:100D100080B500AF044B05488022282103F06AF813
:100D2000C046BD4680BDC046F10C000068080110F9
:100D300080B582B000AF7860054B1B78DBB2072B23
:100D400002D001F051FC00E0C046BD4602B080BDBB
:100D5000E349001080B500AF074B1B78DBB2072BCF
:100D600006D0064B06488022962103F043F800E0A7
:100D7000C046BD4680BDC046E3490010310D0000AD
:100D8000F007011080B500AF054B1B78DBB2072BD5
:100D900003D0132007F0FAFD00E0C046BD4680BD39
:100DA000E349001080B500AF044B054880223C2188
:100DB00003F020F8C046BD4680BDC046850D00004A
:100DC0008008011080B500AF034B180003F048F90C
:100DD000C046BD4680BDC0468008011080B500AF4A
:100DE000FFF72AFF02F0E2FF084B180003F01AFA9F
:100DF00009F01EFB07F050FD05F0F8FF08F0FAFAC5
:100E000009F00CFDC046BD4680BDC046710A000019
:100E100080B500AF164B04221A76164B00221A70CA
:100E2000154B00221A70154BFA221A80002006F08A
:100E30009DF9134B13481A00002101F04BF901F002
:100E400021FA01F06DF9104B1B78DBB21A00F02388
:100E50001340502B07D00C4B1B78DBB21A000F232A
:100E60001340052B01D101F075FBC046BD4680BD86
:100E7000B0080110620801100C09011032090110BC
:100E800019200000B80B0000B249001080B500AF77
:100E90000B4B1B7E042B0FD10A4B1B78DBB21A00C5
:100EA000F0231340502B02D101F0C6FB04E00020D8
:100EB00007F06CFD01F020FAC046BD4680BDC0467B
:100EC000B0080110B249001080B584B000AF020034
:100ED0003960FB1D1A703B681B78E02B08D93B6812
:100EE0001B780F221340DBB2180003F02BF983E1CB
:100EF000C046C046C24B1B7E022B0CD83B681B78F9
:100F0000652B08D03B681B786A2B04D03B681B78A4
:100F1000782B00D069E13B681B78782B00D957E12A
:100F20009A00B84BD3181B689F46FFF73BFF5AE166
:100F3000B54B180003F094F855E1B44B180003F0DA
:100F40008FF801F049FBFFF705FF4CE1B04B1800AB
:100F500003F086F8FFF7DCFE45E1A94B1B7E032B6F
:100F600000D837E101F070FAAA4B1B78002B0ED0A5
:100F7000A84B1B78013BDAB2A64B1A7001F08EFB2E
:100F8000A54B1B8832339AB2A34B1A8022E1A24BA5
:100F9000FA221A801EE101F02BF901F08DF922E10D
:100FA000994B180003F05CF8984B180003F058F8C0
:100FB000974B180003F054F8984B180003F050F8C2
:100FC0008F4B9B7E072B05D0954B96481A0000212E
:100FD00001F080F8102005F09DFE894B05225A761D
:100FE000914B00221A70FEE08A4B00221A7001F029
:100FF00033FA01F0E1FAF6E08C4B180002F058FFEA
:10100000031E00D0F3E07E4B1B7E032B00D8E3E0F1
:10101000032007F0BBFC032006F0A8F8DCE0834BBC
:10102000180002F045FF031E00D0E2E07A4BFA22DE
:101030001A80784B06221A7001F018FAD3E07B4B25
:10104000180002F035FF031E02D001F005FAD3E0CC
:101050006B4B1B7E042B00D0C0E0714A96231B0112
:101060000021180001F036F80B2006F07FF8644BE1
:1010700007229A76B2E0624B05229A76B3E0654B7E
:1010800000221A705E4B180002F0EAFF022007F0FF
:101090007DFC022006F06AF80C2006F067F8584B39
:1010A0000A225A769FE0FFF799FE9CE0FFF796FE32
:1010B00008F0DAFDFA235B00180003F067F808F087
:1010C000D3FDFA235B00180003F060F808F0CCFDB4
:1010D000642003F05BF8FFF79BFE08F0FDFA484B35
:1010E0001B7E022B00D17BE0514B1B78DBB21A0038
:1010F000F0231340502B02D101F09EFA70E0002043
:1011000007F044FC01F0F8F86AE00A2006F02EF837
:1011100069E008F0E7F808F0EBF9464B1800FFF734
:101120005DFD002005F0BEF862B65CE001F044FA17
:1011300059E001F02FFC56E008F0B0F803001A0067
:1011400001235340DBB2002B55D13B4A0E23FB1841
:1011500012781A700F23FB1800221A7023E00F2355
:10116000FB181B78354A944663448022520513438A
:101170001A000D23FB1812781A700D23FB181B7828
:10118000092B01D905F0A2FD0D23FB181B780733AD
:10119000DBB2180007F0FAFB0F23FB181A780F23B5
:1011A000FB1801321A700F23FA180E23FB1812785D
:1011B0001B789A42D3D316E0114B180002F050FF6F
:1011C00011E00F4B9B7E072B0CD101F03DF909E09C
:1011D000C04608E0C04606E0C04604E0C04602E063
:1011E000C04600E0C046C04606E0C04604E0C04637
:1011F00002E0C04600E0C046BD4604B080BDC04627
:10120000B008011074B400000C0801106808011047
:10121000F00701102408011032090110F408011030
:1012200019200000B80B00003D4B0010980C011075
:10123000B249001000530700DA020010DB02000080
:1012400080B582B000AF78600A00FB1C1A70FB1CEE
:101250001A787B681900052005F046FBC046BD469C
:1012600002B080BD80B582B000AF78600A00FB1C80
:101270001A70FB1C1A787B681900042005F034FBF7
:10128000C046BD4602B080BD80B500AF074B00220E
:101290001A80074B00221A60064B00221A60064B88
:1012A00000221A60C046BD4680BDC046D00801106D
:1012B000280801102C0901100808011080B582B01F
:1012C00000AF3B1D180003231A0000210AF048F864
:1012D0001C4B1B681C4A934204D01A4B1B681B4AC8
:1012E00093422AD107F0B8FA72B606F089FC154B82
:1012F0001B681B0CDAB23B1D1A70124B1B681B0AD1
:10130000DAB23B1D5A700F4B1B68DAB23B1D9A7064
:10131000FE23DB02180007F083F9002007F080F9B4
:101320003B1D1A000321002006F08AFF06F072FC24
:1013300062B6074B03221A70FEE7C046BD4602B0F4
:1013400080BDC0462C09011003100000038001007D
:101350001080001080B58EB000AF02003960FB1D18
:101360001A703723FB1800221A702823FB18180064
:1013700005231A00002109F0F3FF0823FB181800C9
:1013800020231A00002109F0EBFF07F065FA72B67E
:10139000002006F049FC06F033FCC0463B681B7891
:1013A000C12B65D002DCC02B07D090E1C22B00D14D
:1013B000C4E0FF2B00D183E189E1FB1D1B78012BE9
:1013C00000D087E1FFF760FFCA4B1A00032100201D
:1013D00006F056FDC74B1B681A0CC64B1968FF2355
:1013E0001B020B40D218C34B1B681904FF231B04BC
:1013F0000B40D318C04A934203D1BE4BBF4A1A6078
:1014000016E0BC4B1B681A0CBA4B1968FF231B0271
:101410000B40D218B74B1B681904FF231B040B4069
:10142000D318B64A934200D056E1B24BB24A1A6082
:1014300000233B630AE03B6B1A03AE4B1B68D318D7
:10144000180007F0EDF83B6B01333B633B6B162B49
:10145000F1D92823FB18AB221A702823FB18C022CD
:101460005A702823FB1802211800FFF7FBFE3AE10F
:10147000A34B1B88002B0ED0A14B1B885A1C3B682A
:1014800001331B7819003B6802331B781B02CB1811
:101490009A4200D027E13B6801331B789AB23B683F
:1014A00002331B789BB21B029BB2D3189AB2944BA7
:1014B0001A803B6804331B781B023A6803321278A7
:1014C0009B18002B00DC09E18A4B1A688D4B1B68C6
:1014D000D31818003B6804331B781B023A680332A8
:1014E000127899183B6805331A0006F0A9FE3B688C
:1014F00004331B781B023A68033212789B181A00D7
:10150000804B1B68D2187F4B1A602823FB18AB2234
:101510001A702823FB18C1225A703B685A78282376
:10152000FB189A703B689A782823FB18DA702823F6
:10153000FB1804211800FFF795FED4E0FB1D1B7873
:10154000092B00D0CCE02823FB18AB221A702823EB
:10155000FB18C2225A703B685A782823FB189A70ED
:101560003B689A782823FB18DA7000233B6364E019
:10157000644B1A683B6BD31A1F2B2BD95D4B1A682F
:101580003B6BD31818000823FB181A00202106F023
:1015900077FC3723FB1800221A7012E03723FB1860
:1015A0001B780822BA18D35C1A00574B1B68D21854
:1015B000554B1A603723FB181A783723FB18013272
:1015C0001A703723FB181B781F2BE7D93B6B20338E
:1015D0003B6332E0474B1A683B6BD3181800494B0A
:1015E0001A683B6BD31A19000823FB181A0006F07F
:1015F00047FC3723FB1800221A7012E03723FB1830
:101600001B780822BA18D35C1A003F4B1B68D2180B
:101610003D4B1A603723FB181A783723FB18013229
:101620001A703723FB181A78364B19683B6BCB1AA4
:101630009A42E3D3334B1B683B63324B1B683A6BD4
:101640009A4295D33B6803331B781A003B680433F6
:101650001B781B02D2183B6805331B781B04D31878
:101660001A00294B1B689A421DD13B6806331B7830
:101670001A003B6807331B781B02D2183B680833FB
:101680001B781B04D3181A001E4B1B689A420AD100
:101690002823FB1855221A711C4B1D4880220B2150
:1016A00002F0A8FB05E02823FB18FF221A71FFF7C0
:1016B000EBFD2823FB1805211800FFF7D3FD12E0EE
:1016C000FB1D1B78012B0DD1FFF7DEFD0BE0FFF7B3
:1016D000DBFD08E0C04606E0C04604E0C04602E08C
:1016E000C04600E0C04606F095FA62B6C046BD4668
:1016F0000EB080BD2C090110031000000380010012
:10170000D00801100808011028080110BD120000BF
:101710009808011080B58EB000AF02003960FB1D43
:101720001A703723FB1800221A702823FB181800A0
:1017300005231A00002109F013FE0823FB181800E6
:1017400020231A00002109F00BFE002006F06CFA9D
:101750003B681B781A003B6801331B781B02D318C7
:10176000062B00D0B6E1FB1D1B78032B00D8B1E19E
:101770003B6802331B78BA2B00D0ABE107F06CF862
:1017800006F03EFA72B6C0463B6803331B78C12BA5
:101790006DD002DCC02B07D091E1C22B00D1C6E096
:1017A000FF2B00D188E18AE1FB1D1B78042B00D0C0
:1017B00088E1FFF769FDC94B1A000321002006F0FC
:1017C0005FFBC64B1B681A0CC44B1968FF231B0236
:1017D0000B40D218C14B1B681904FF231B040B409C
:1017E000D318BF4A934203D1BC4BBE4A1A6016E0DD
:1017F000BA4B1B681A0CB94B1968FF231B020B402C
:10180000D218B64B1B681904FF231B040B40D318D6
:10181000B44A934200D057E1B04BB14A1A6000235A
:101820003B630AE03B6B1A03AC4B1B68D3181800F0
:1018300006F0F6FE3B6B01333B633B6B162BF1D995
:101840002823FB1803221A702823FB1800225A7041
:101850002823FB18AB229A702823FB18C022DA70C9
:101860002823FB1804211800FFF7EAFC2FE19E4B08
:101870001B88002B0ED09C4B1B885A1C3B680433E2
:101880001B7819003B6805331B781B02CB189A4262
:1018900000D01CE13B6804331B789AB23B680533E7
:1018A0001B789BB21B029BB2D3189AB28E4B1A8044
:1018B0003B6806331B78002B00D107E1874B1A6881
:1018C0008A4B1B68D31818003B6806331B78190035
:1018D0003B6807331A0006F0B3FC3B6806331B78FD
:1018E0001A00824B1B68D218804B1A602823FB1801
:1018F00003221A702823FB1800225A702823FB1891
:10190000AB229A702823FB18C122DA703B681A793F
:101910002823FB181A713B685A792823FB185A713F
:101920002823FB1806211800FFF78AFCCFE02823A4
:10193000FB1803221A702823FB1800225A70282350
:10194000FB18AB229A702823FB18C222DA703B687E
:101950001A792823FB181A713B685A792823FB1837
:101960005A7100233B6364E0604B1A683B6BD31AE7
:101970001F2B2BD9594B1A683B6BD318180008231F
:10198000FB181A00202106F07BFA3723FB180022EF
:101990001A7012E03723FB181B780822BA18D35CA0
:1019A0001A00534B1B68D218514B1A603723FB188F
:1019B0001A783723FB1801321A703723FB181B786B
:1019C0001F2BE7D93B6B20333B6332E0434B1A6854
:1019D0003B6BD3181800454B1A683B6BD31A1900A0
:1019E0000823FB181A0006F04BFA3723FB180022D5
:1019F0001A7012E03723FB181B780822BA18D35C40
:101A00001A003B4B1B68D218394B1A603723FB185E
:101A10001A783723FB1801321A703723FB181A780B
:101A2000324B19683B6BCB1A9A42E3D32F4B1B689E
:101A30003B632E4B1B683A6B9A4295D33B68063347
:101A40001B781A003B6807331B781B02D2183B68CF
:101A500008331B781B04D3181A00254B1B689A42C5
:101A60001DD13B6809331B781A003B680A331B7889
:101A70001B02D2183B680B331B781B04D3181A00C7
:101A80001A4B1B689A420AD12823FB1855229A71D7
:101A9000184B194880220B2102F0ACF905E02823ED
:101AA000FB18FF229A71FFF7EFFB2823FB18072191
:101AB0001800FFF7C5FB0AE0FFF7E6FB07E0FFF7BA
:101AC000E3FB04E0C04602E0C04600E0C04606F08A
:101AD000A1F862B6C046BD460EB080BD2C0901100B
:101AE0000310000003800100D00801100808011055
:101AF00028080110BD1200009808011080B582B0BE
:101B000000AF02003960FB1D1A703B681A78344B35
:101B10001A70C0463B681B78082B1FD004DC062BCC
:101B200007D0072B08D056E0092B20D0802B27D0D8
:101B300051E0FFF70FF94EE008F070FEFFF79AF85A
:101B4000284B180002F08CFA274B180002F088FA94
:101B500001F046FB122006F019FF3CE0234B180071
:101B600002F07EFAFFF7F6F801F03AFB33E01F4B84
:101B7000180002F075FAFFF7EDF801F031FB2AE0EA
:101B8000C0463B6801331B78072B03D1184B032257
:101B90001A701FE03B6801331B780F2B03D1144BE5
:101BA00009221A7016E03B6801331B78172B03D10A
:101BB0000F4B11221A700DE03B6801331B781F2B6D
:101BC00003D10B4B1C221A7004E0094A3B68013315
:101BD0001B781370C046C046BD4602B080BDC046EB
:101BE000F2080110F0070110800801100C08011024
:101BF000AC42001080B584B000AF02003960FB1D1C
:101C00001A70C0463B681B78012B02D0022B2DD0E6
:101C100052E02B4B1B78DBB21AB22A4B1B78DBB29B
:101C20001B021BB213431AB20E23FB181A800E2399
:101C3000FB180E22BA18128840218A431A80204AC3
:101C40000E23FB181B88DBB213701F4B01221A7086
:101C5000FFF710F81D4B180002F002FA1C4B180099
:101C600002F0FEF9122006F091FE25E0144B1B78DD
:101C7000DBB21AB2134B1B78DBB21B021BB213434D
:101C80001AB20E23FB181A800E23FB180E22BA1864
:101C9000128840210A431A80094A0E23FB181B8828
:101CA000DBB21370084B00221A700A4B180002F0C6
:101CB000D7F9FFF74FF8C046C046BD4604B080BD17
:101CC00050800010518000100C090110F007011025
:101CD000800801100C08011080B582B000AF02002E
:101CE0003960FB1D1A70C046C046974B1B7E022B05
:101CF00000D81BE13B681B783E2B00D918E19A0005
:101D0000924BD3181B689F468F4B0522DA7618E159
:101D1000072005F02BFA8C4B1222DA7611E18A4B60
:101D20000522DA760DE1062006F030FE082005F0E7
:101D30001DFA874B1B78DBB2552B00D0FAE000F080
:101D4000DBFAF7E000F092FC7F4B1422DA76814A4E
:101D50009623D90080481300802202F04BF8F0E06F
:101D600000F084FC784B1522DA76EAE0764B180016
:101D700002F076F9022005F0F9F90C2005F0F6F9E9
:101D8000714B1622DA76704B0A225A76734B1B7807
:101D9000DBB2012B02D100F087FFD2E0704B0122B1
:101DA0001A70CEE06C4B180002F05AF96D4B5522B8
:101DB0001A7000F01DFA00F07FFA634B1722DA76F2
:101DC00001F00EFABDE0604B1322DA76B9E006208E
:101DD00006F0DCFD00F04AFC00F074FC5A4BDB7EA0
:101DE000132B00D0A8E0584B0522DA7600F084FAD5
:101DF000A2E0062006F0CAFD00F038FC00F02CFB43
:101E0000514B0522DA7600F075FB092005F0AEF99A
:101E100097E04D4BDB7E172B02D101F089FA90E061
:101E2000514B180002F044F8031E09D04E4B180025
:101E300002F016F9002007F033FC00F06BFC80E0A4
:101E4000414B0522DA76404B5B7E082B04D91020EB
:101E500004F040FF00F0F0FA00F09EFA71E0012279
:101E600000210020FEF7A2FA6BE0012201210020F0
:101E7000FEF79CFA65E0012202210020FEF796FAA7
:101E80005FE0012203210020FEF790FA59E02E4B7B
:101E9000DB7E162B06D1354B354800220A2101F096
:101EA000A9FF4BE0284BDB7E172B47D12E4B1800A8
:101EB00002F0D6F8002007F0F3FB3FE000F034FF1B
:101EC0003FE02C4B1B78002B01D0C04639E02A4B59
:101ED0001B78DBB2002B01D0C04632E000F068FE78
:101EE0002FE000F0EDFF2CE001F06CF829E000F0AD
:101EF00077FF26E0144BDB7E162B06D1124B5B7E60
:101F0000082B1DD900F098FA1AE00F4BDB7E172B37
:101F100016D101F00DFA13E0184B53221A7010E09D
:101F2000094B0522DA7600F0E7F90AE0C04608E03E
:101F3000C04606E0C04604E0C04602E0C04600E0FD
:101F4000C046BD4602B080BDB008011058B60000C2
:101F5000D5490010D10C00002C0801109642001049
:101F600062080110B2490010980C0110012700000E
:101F70004808011030090110A84B0010ED070110AE
:101F800080B500AF044B1B78042B01D1012300E086
:101F900000231800BD4680BD6008011080B500AF69
:101FA000064B1B7E042B05D1044B5B7E0A2B01D113
:101FB000012300E000231800BD4680BDB0080110D9
:101FC00080B500AF064B1B7E042B05D1044B9B7ED6
:101FD000072B01D1012300E000231800BD4680BD7E
:101FE000B008011080B500AF04F0B8FE031E0DD09C
:101FF000084B1B7E032B03D0064B1B7E012B05D108
:10200000044B180002F02CF800F090F9C046BD46D1
:1020100080BDC046B008011080B582B000AF7860C6
:1020200000F0BAF9C046BD4602B080BD80B584B0AC
:1020300000AF786004F092FE031E11D0184B1B7E97
:10204000032B03D0164B1B7E012B02D100F06EF93F
:1020500021E0134B1B7E042B1DD100F09DF91AE0EB
:102060000E23FB18912252421A800E4B180004F0E6
:102070009FFD03001A000E23FB181B8813409BB220
:10208000002B06D0084B06480022032101F0B2FEC7
:1020900001E000F04BF9C046BD4604B080BDC0462B
:1020A000B0080110074B00102D20000080B500AFD4
:1020B000074B1B7E022B07D9054B5B7E0A2B03D0F7
:1020C000034B180001F016FFC046BD4680BDC04658
:1020D000B008011080B584B000AFF8607A600B23BF
:1020E000FB180A1C1A700D4B1B7E022B11D90B23F7
:1020F000FB181B78002B06D0F9687B680748002284
:1021000001F078FE05E0F9687B680448802201F060
:1021100071FEC046BD4604B080BDC046B008011087
:1021200080B582B000AF3B1D00221A80BB1C2F4A35
:102130001A80BB1D00221A8014E0BB1C1A88BB1D2C
:102140001B88D3188022520513431B78DBB299B247
:102150003B1D3A1D12888A181A80BB1D1A88BB1DA8
:1021600001321A80BB1D1B88232BE6D9BB1C1A88A1
:10217000BB1D1B88D3188022520513431B78DBB28A
:102180001AB2BB1C1988BB1D1B88CB1801338021D8
:1021900049050B431B78DBB21B021BB213431AB277
:1021A0003B001A803A003B1D12881B889A4201D1DD
:1021B000012317E0BB1D00221A800EE0BB1C1A8809
:1021C000BB1D1B88D318802252051343FF221A70AF
:1021D000BB1D1A88BB1D01321A80BB1D1B88252B15
:1021E000ECD900231800BD4602B080BDB249000002
:1021F00080B582B000AF3B1D00221A80BB1C204A74
:102200001A80BB1D00221A8014E0BB1C1A88BB1D5B
:102210001B88D3188022520513431B78DBB299B276
:102220003B1D3A1D12888A181A80BB1D1A88BB1DD7
:1022300001321A80BB1D1B88232BE6D9BB1C1A88D0
:10224000BB1D1B88D3188022520513431A003B1D67
:102250001B88DBB21370BB1C1A88BB1D1B88D318EC
:1022600001338022520513431A003B1D1B881B0AB1
:102270009BB2DBB21370C046BD4602B080BDC04603
:10228000B249000080B500AF06F0E6FA72B605F07C
:10229000B7FC012005F0C8FC064B1A68FE23DB02E0
:1022A0002621180005F0ECFD05F0B4FC62B6C0462E
:1022B000BD4680BD3405011080B500AF06F0CCFAF4
:1022C00072B605F09DFC012005F0AEFCFE23DB029A
:1022D000180006F0A5F9074B1A68FE23DB02262139
:1022E000180005F0ADFF05F095FC62B6C046BD468E
:1022F00080BDC0463405011080B500AF094B1B7886
:10230000DBB21A000F231340052B05D1064B022226
:102310001A7000F0ABF802E000F096F8C046BD4637
:1023200080BDC046B24900102408011080B582B0BB
:1023300000AF72B60E4B00221A76192004F02EFB65
:102340000C4AFB1D12781A70FB1D1B78012B05D15E
:1023500000F01AF8074B03221A70FEE7FB1D1B78EA
:10236000022B02D1034B00221A70FEF75BFCE7E759
:10237000B00801103443001080B500AF07F0C2F878
:10238000C046BD4680BDC04680B500AF07F0BAF874
:10239000C046BD4680BDC04680B500AF1C4B1B7E0D
:1023A000042B32D1C04600F061F904F053FD012046
:1023B00004F0DCFE012006F0E9FA802004F08AFC3B
:1023C000144B1A0001213220FFF784FE104B01222A
:1023D0001A760F4BDB7E172B02D100F0B5F915E012
:1023E0000B4BDB7E162B02D100F0ACF80EE0084B55
:1023F000DB7E172B0AD0064B5B7E082B06D91020FC
:1024000004F068FC00F018F800E0C046BD4680BD4E
:10241000B00801102D20000080B500AF8C2004F022
:10242000BDFAC046BD4680BD80B500AF8D2004F02A
:10243000B5FAC046BD4680BD80B500AF042004F0AB
:10244000ADFAC046BD4680BD80B500AF012004F0A6
:10245000A5FAC046BD4680BD80B500AF00F032F998
:10246000022004F09BFAC046BD4680BD80B500AF97
:1024700000F070F8032004F091FAC046BD4680BD1C
:1024800080B500AF402004F089FAC046BD4680BD4B
:1024900080B500AF00F0CAF903001A0001235340D1
:1024A000DBB2002B03D1312004F078FA00E0C04603
:1024B000BD4680BD80B500AF322004F06FFAC04643
:1024C000BD4680BD80B500AF332004F067FAC0463A
:1024D000BD4680BD80B500AF342004F05FFAC04631
:1024E000BD4680BD80B500AF352004F057FAC04628
:1024F000BD4680BD80B500AF442004F04FFAC04611
:10250000BD4680BD80B500AF632004F047FAC046E9
:10251000BD4680BD80B500AF642004F03FFAC046E0
:10252000BD4680BD80B500AF652004F037FAC046D7
:10253000BD4680BD80B500AF662004F02FFAC046CE
:10254000BD4680BD80B500AF602004F027FAC046CC
:10255000BD4680BD80B500AF802004F01FFAC046A4
:10256000BD4680BD80B500AF06F0D6FE812004F0E8
:1025700015FA0B4B1B78002B05D0094B00221A7063
:1025800000F092FB08E0074B1B78002B02D000F014
:102590006FFB01E000F00CFBC046BD4680BDC046AD
:1025A000620801100C09011080B500AF822004F010
:1025B000F5F9C046BD4680BD80B500AF462004F0A9
:1025C000EDF9C046BD4680BD80B500AF842004F063
:1025D000E5F9C046BD4680BD80B500AF852004F05A
:1025E000DDF9C046BD4680BD80B500AF052004F0D2
:1025F000D5F9C046BD4680BD80B500AF062004F0C9
:10260000CDF9C046BD4680BD80B500AF882004F03E
:10261000C5F9C046BD4680BD80B582B000AF7860C8
:10262000002006F0B3F900F059F8FFF765FEC04648
:10263000BD4602B080BDC04680B500AF054B064820
:102640000022962101F0D6FB422004F0A7F9C046F3
:10265000BD4680BD192600001009011080B500AFED
:10266000832004F09BF9C046BD4680BD80B500AF15
:10267000034B180001F0F4FCC046BD4680BDC046C7
:102680001009011080B582B000AF7860FFF7E4FE5A
:10269000FFF7ECFEC046BD4602B080BD80B500AF7E
:1026A000054B1B881900054B0548002201F0A2FBD1
:1026B000C046BD4680BDC0463209011085260000D7
:1026C000D808011080B500AF034B180001F0C8FC1A
:1026D000C046BD4680BDC046D808011080B500AFD9
:1026E000432004F05BF9C046BD4680BD80B582B092
:1026F00000AF786000F00EF8C046BD4602B080BD65
:1027000080B582B000AF786000F030F8C046BD46BA
:1027100002B080BD80B500AF8B2004F03FF9C04609
:10272000BD4680BD80B500AF054B064800222C2178
:1027300001F060FBFFF706FFC046BD4680BDC04606
:10274000ED2600004808011080B500AF054B064893
:1027500000222C2101F04EFB612004F01FF9C0463D
:10276000BD4680BDED2600004808011080B500AFD1
:102770008A2004F013F9C046BD4680BD80B500AF85
:10278000044B1B681B78013B5A425341DBB21800D3
:10279000BD4680BD3805011080B582B000AF3B1D3D
:1027A000164A1A80FB1D00221A701EE0FB1D1B78C2
:1027B000134A944663448022520513431A00FB1CBB
:1027C00012781A703B1D1A88FB1D1B780521CB1A45
:1027D000D3188022520513431A00FB1C1B78137078
:1027E000FB1D1A78FB1D01321A70FB1D1B78052B8F
:1027F000DCD9C046BD4602B080BDC046BC43000027
:102800004041000080B500AF024B09221A70C0465B
:10281000BD4680BDC643001080B500AF024B01220B
:102820001A70C046BD4680BDC643001080B582B058
:1028300000AF164B1B78DBB21AB2154B1B78DBB21C
:102840001B021BB213431AB2BB1D1A80BB1D1B888F
:10285000002B01D1002314E0BB1DBA1D12880132E8
:102860001A80BB1D1B888022520513431A007B1D52
:1028700012781A707B1D1B783F2B01D0002300E0DB
:1028800001231800BD4602B080BDC046E8420010DA
:10289000E942001080B582B000AF164B1B78DBB266
:1028A0001AB2154B1B78DBB21B021BB213431AB2D0
:1028B000BB1D1A80BB1D1B88002B01D1002314E017
:1028C000BB1DBA1D128801321A80BB1D1B888022D5
:1028D000520513431A007B1D12781A707B1D1B785A
:1028E0003F2B01D0002300E001231800BD4602B0B9
:1028F00080BDC046944200109542001080B500AFE4
:10290000204B1B78DBB2002B04D11F4B1B78DBB2B2
:10291000002B29D11D4B1B78DBB2092B26D1FFF7E9
:10292000B9FF03001A0001235340DBB2002B1FD173
:10293000FFF77CFF03001A0001235340DBB2002B9A
:1029400018D1104B00221A700F4B1B78DBB2002BF2
:1029500012D10D4B01221A700D4B1B78DBB2002BEC
:102960000CD1FFF729FE0AE0C04608E0C04606E0A9
:10297000C04604E0C04602E0C04600E0C046BD4696
:1029800080BDC046C54B0010EF4900101243001037
:10299000EA46001080B500AF144B1B78DBB2002B69
:1029A0001AD0134B1B78DBB2092B17D0FFF772FF3D
:1029B000031E15D1FFF73AFF031E13D10D4B012261
:1029C0001A700D4BDB7E172B0DD10B4B5B7E082B4A
:1029D00009D900F0B5FC06E0C04604E0C04602E0BC
:1029E000C04600E0C046BD4680BDC046EF4900106D
:1029F00012430010C54B0010B008011080B586B01E
:102A000000AF1723FB1800221A70114B3B61114BCA
:102A1000FB60114B1B78DBB21A00104B1B78DBB24A
:102A20001B021343802252051343BB600C4B1B78DF
:102A3000DBB21A000B4B1B78DBB21B021343802264
:102A4000520513437B60C046C046BD4606B080BDFC
:102A500010100110002801100481001005810010E1
:102A60006A8300106B83001080B586B000AF172317
:102A7000FB1801221A7000233B610423FB60054B05
:102A80001B78DBB2BB6000237B60C046C046BD46FE
:102A900006B080BD264B001080B500AFC046BD46D5
:102AA00080BDC04680B582B000AF374AFB1D1278AA
:102AB0001A70FB1D1B78002B61D0334B00221A705B
:102AC000324B5B7E082B5BD9314B1B78DBB21AB2E1
:102AD000304B1B78DBB21B021BB213431AB23B1DF7
:102AE0001A803B1D3A1D1288D2081A803B1D1B8894
:102AF000652B1ED8284B1B8801339AB2264B1A80AF
:102B0000254B1B88254A934219D9234B00221A8052
:102B1000234AFB1D12781A70FB1D1B78012B03D171
:102B20001F4B00221A700AE01D4B04221A70C04687
:102B300005E01B4B01221A70174B00221A80194B1B
:102B40003A1D12881A803B1D1B88642B10D9164B26
:102B50001B8801339AB2144B1A80134B1B883B2BF2
:102B60000ED9114B00221A80104B01221A7007E077
:102B70000E4B00221A700C4B00221A8000E0C04657
:102B8000BD4602B080BDC0463E4B0010B0080110EB
:102B90002D4B00102E4B001034090110E7030000EC
:102BA0009142001064080110F00801103D4B001024
:102BB00080B584B000AFFFF7F1F9031E37D0214B89
:102BC0001B78DBB2072B34D11F4B1B78002B32D183
:102BD0001E4B1B78DBB2002B2FD11D4BDB7E172B3E
:102BE0002CD11C4B1B78DBB21A001B4B1B78DBB2C1
:102BF0001B021A43194B1B78DBB21B041A43184BF8
:102C00001B78DBB21B061343FB60164B1B78DBB251
:102C10001A00154B1B78DBB21B021343BB60134B2E
:102C20001B78DBB27B60682003F0B8FE06E0C0468C
:102C300004E0C04602E0C04600E0C046BD4604B025
:102C400080BDC046E34900100C090110A84B0010DC
:102C5000B0080110AC4B0010AD4B0010AE4B001093
:102C6000AF4B00104E4B00104F4B0010714B00103B
:102C700080B500AFFFF792F9031E0BD0084B1B780D
:102C8000012B09D1074BDB7E172B06D16B2003F0FC
:102C900085FE02E0C04600E0C046BD4680BDC0469D
:102CA0000C090110B008011080B500AFFFF776F9EC
:102CB000031E10D00B4B1B78DBB2072B0DD10A4B38
:102CC0001B78002B0BD1094BDB7E162B08D169201A
:102CD00003F064FE04E0C04602E0C04600E0C046E7
:102CE000BD4680BDE34900100C090110B008011079
:102CF00080B500AFFFF752F9031E0CD0084B1B78CC
:102D0000DBB2072B09D1074BDB7E172B06D16A20DC
:102D100003F044FE02E0C04600E0C046BD4680BD70
:102D2000E3490010B008011080B584B000AF214B1A
:102D30001B78DBB21A00204B1B78DBB21B021A4354
:102D40001E4B1B78DBB21B041A431D4B1B78DBB2F6
:102D50001B061343FB601B4B1B78DBB21A001A4B9C
:102D60001B78DBB21B021A43184B1B78DBB21B0427
:102D70001A43174B1B78DBB21B061343BB60154B82
:102D80001B78DBB21A00144B1B78DBB21B02134317
:102D90007B60C046C046C046104BDB7E172B04D17B
:102DA000FB681900002000F003FAC046BD4604B0DD
:102DB00080BDC04600830010018300100283001014
:102DC00003830010AC4B0010AD4B0010AE4B001055
:102DD000AF4B0010AA4B0010AB4B0010B008011015
:102DE00080B582B000AF0D4B1B78DBB21A000C4BE4
:102DF0001B78DBB21B021A430A4B1B78DBB21B04A5
:102E00001A43094B1B78DBB21B0613437B60C04699
:102E1000C046C046BD4602B080BDC046BD4B001096
:102E2000BE4B0010BF4B0010C04B001080B584B0EB
:102E300000AF786039600023FB603A687B689A4293
:102E400004D93A687B68D31AFB6003E07A683B6870
:102E5000D31AFB60C046C046FA68FA239B009A4228
:102E60001FD8FB68282B05D9144B00221A70FFF7D6
:102E70001BFF16E0FB68142B06D9104B1B7805339B
:102E8000DAB20E4B1A700CE0FB680A2B06D90B4B1A
:102E90001B780133DAB2094B1A7002E0074B0022AB
:102EA0001A70064B1B78142B04D9044B00221A709D
:102EB000FFF7FAFEC046BD4604B080BD44080110CD
:102EC00080B584B000AF324B1B78DBB21AB2314B05
:102ED0001B78DBB21B021BB213431AB20E23FB1882
:102EE0001A802D4B1B78DBB21A002C4B1B78DBB2FF
:102EF0001B021A432A4B1B78DBB21B041A43294BD3
:102F00001B78DBB21B061343BB60274B1B78DBB27D
:102F10001AB2264B1B78DBB21B021BB213431AB248
:102F2000BB1D1A80224B1B78DBB21A00214B1B7889
:102F3000DBB21B021A43204B1B78DBB21B041A4383
:102F40001E4B1B78DBB21B0613433B60C046C046DA
:102F5000C046C046C046C046194BDB7E172B02D187
:102F6000FFF7C6FE10E0164BDB7E162B0CD10E23AE
:102F7000FA18BB1D12881B889A4205D13A68BB68B3
:102F800011001800FFF752FFC046BD4604B080BDD7
:102F9000B04B0010B14B0010B24B0010B34B0010FF
:102FA000B44B0010B54B0010B64B0010B74B0010DF
:102FB000B84B0010B94B0010BA4B0010BB4B0010BF
:102FC000B008011080B584B000AF314B1B78DBB284
:102FD0001AB2304B1B78DBB21B021BB213431AB27E
:102FE0000E23FB181A802C4B1B78DBB21A002B4BDC
:102FF0001B78DBB21B021A43294B1B78DBB21B0484
:103000001A43284B1B78DBB21B061343BB60264BCD
:103010001B78DBB21AB2254B1B78DBB21B021BB24A
:1030200013431AB2BB1D1A80214B1B78DBB21A0066
:10303000204B1B78DBB21B021A431F4B1B78DBB201
:103040001B041A431D4B1B78DBB21B0613433B606A
:10305000C046C046C046C046C046C046184BDB7E90
:10306000172B10D0164BDB7E162B0CD10E23FA1823
:10307000BB1D12881B889A4205D13A68BB681100B3
:103080001800FFF7D3FEC046BD4604B080BDC04661
:10309000B04B0010B14B0010B24B0010B34B0010FE
:1030A000B44B0010B54B0010B64B0010B74B0010DE
:1030B000B84B0010B94B0010BA4B0010BB4B0010BE
:1030C000B008011080B584B000AF2D4B1B78DBB287
:1030D0001A002C4B1B78DBB21B021343FB602A4BFC
:1030E0001B78DBB21A00294B1B78DBB21B0213439F
:1030F000BB60274B1B78DBB21A00264B1B78DBB278
:103100001B021A43244B1B78DBB21B041A43234BCC
:103110001B78DBB21B0613437B60214B1B78DBB2B1
:10312000002B04D11F4B1B78DBB2002B01D00023F6
:1031300021E0FA68BB689A4218D1C0461A4B1B7846
:10314000002B01D0012316E0184B1A68F0231B0650
:103150009A4203D1154B7A681A600BE0134B1B6837
:103160007A68D31A202B05D9012304E00F4BF022F3
:1031700012061A6000231800BD4604B080BDC04688
:1031800004810010058100106A8300106B83001019
:1031900000830010018300100283001003830010DD
:1031A0004D4B0010A84B001030090110D40801103D
:1031B00080B582B000AF02003960FB1D1A70C046B6
:1031C000C046054BFA1D12781A70044B3A681A6013
:1031D000C046BD4602B080BD30090110280901106B
:1031E00080B582B000AF114B1B78DBB21A00104BD8
:1031F0001B78DBB21B021A430E4B1B78DBB21B049D
:103200001A430D4B1B78DBB21B0613437B60C04691
:103210000A4BF02212061A60F0231B061900002048
:10322000FFF7C6FFC046BD4602B080BD0083001058
:10323000018300100283001003830010D4080110E2
:1032400080B582B000AFFFF7F1FA03001A00012346
:103250005340DBB2002B4CD12C4B1B78DBB2072B3D
:1032600049D12B4B1B78DBB2012B46D1294B1B7864
:10327000DBB21A00284B1B78DBB21B021A43274B28
:103280001B78DBB21B041A43254B1B78DBB21B06F1
:1032900013437B60234B1B687A68D31A3B60224B35
:1032A000DB7E172B2ED1FFF70DFF03001A00012341
:1032B0005340DBB2002B11D01C4B1B78012B00D0EC
:1032C00020E03A68F0235B009A4218D97B68190025
:1032D0000220FFF76DFFFFF76BFC10E0134B1B782C
:1032E0000033012B0DD87B6819000120FFF760FF28
:1032F00008E0C04606E0C04604E0C04602E0C04622
:1033000000E0C046BD4602B080BDC046E3490010A3
:103310009642001000830010018300100283001009
:103320000383001028090110B008011030090110B2
:1033300080B500AF8E2003F031FBC046BD4680BD96
:1033400080B500AF6D2003F029FBC046BD4680BDAF
:1033500080B500AF6E2003F021FBC046BD4680BDA6
:1033600080B500AF8F2003F019FBC046BD4680BD7D
:1033700080B500AF902003F011FBC046BD4680BD74
:1033800080B584B000AF0200FB1D1A70224B1B7881
:10339000DAB20F23FB18D2081A70FB1D1B78002B22
:1033A00022D00F23FB181B780F2B0ED80F23FB18EE
:1033B0001A780F23FB1801321A70174A0F23FB18D3
:1033C0001B78DB00DBB2137021E00F23FB18102207
:1033D0001A70114A0F23FB181B78DB00DBB2137045
:1033E000052005F051FB12E00F23FB181B78002B82
:1033F0000DD00F23FB181A780F23FB18013A1A700F
:10340000054A0F23FB181B78DB00DBB21370C046A4
:10341000BD4604B080BDC046AC42001080B500AFD0
:10342000FFF704FA03001A0001235340DBB2002B1C
:1034300001D0002307E0054B1B78DBB2072B01D03E
:10344000002300E001231800BD4680BDE3490010C1
:1034500080B582B000AF0200FB1D1A70C046234B3E
:103460001B7E042B03D0FB1D1B78092B35D1FB1DC4
:103470001B780A2B33D89A001D4BD3181B689F4624
:10348000FFF706F82EE0FFF773FF2BE0FFF768FF6A
:1034900028E00120FFF774FF24E00020FFF770FF11
:1034A00020E0FFF707F81DE0FFF70CF81AE0FFF740
:1034B00019F817E00D4B1B7E032B04D1FDF7A8FC78
:1034C000FDF7E4FC0DE0094B1B7E042B09D1FEF750
:1034D00063FF06E0FEF7D4FF04E0C04602E0C0460A
:1034E00000E0C046BD4602B080BDC046B008011035
:1034F00054B7000080B500AF034B1900122000F054
:103500000BFBC046BD4680BD3C05011080B584B0B4
:1035100000AFF860B960BB1D1A8018E0FB681B782B
:103520002D2B01D05F2B03D1FB680133FB600EE034
:10353000FB681A78BB681B789A4201D0002312E01E
:10354000FB680133FB60BB680133BB60C046BB1D39
:103550001B88BA1D591E1180002B03D0BB681B7835
:10356000002BDBD101231800BD4604B080BDC0464E
:1035700080B584B000AF78600023FB6013E0FA6888
:1035800013005B009B185B000B4A99187B680622AE
:103590001800FFF7BBFF031E02D0FB68DBB206E09A
:1035A000FB680133FB60FB68132BE8DDFF23180089
:1035B000BD4604B080BDC046D0B7000080B500AFA6
:1035C000144B1B78DBB20F2B20D89A00124BD31868
:1035D0001B689F460F4B05221A7017E00D4B052202
:1035E0001A7013E00B4B07221A700FE0094B0922E7
:1035F0001A700BE0074B0C221A7007E0054B0E22E5
:103600001A7003E0034B00221A70C046C046BD4644
:1036100080BDC046004A001048B8000080B500AF29
:103620001D4B1B78DBB2013B032B03D81A4B002246
:103630001A70C046194B1B78DBB20F2B29D89A00A1
:10364000174BD3181B689F46144B0A221A7020E0B0
:10365000124B0C221A701CE0104B0E221A7018E04C
:103660000E4B09221A700F4B01221A70892003F0A9
:1036700095F90EE0094B03221A700AE0074B052268
:103680001A7006E0054B07221A7002E0FFF796FF5A
:10369000C046C046BD4680BD144300101243001012
:1036A00088B80000004A001080B584B000AF002345
:1036B000FB600023BB6001237B602A4B1A68FB6818
:1036C000D3181B780D2B0AD0264B1A68FB68D31829
:1036D0001B782C2B03D0FB680133FB60EDE7FB6804
:1036E0003B602DE01F4B1A68FB68D3181B783D2BFD
:1036F0002BD01C4B1A68FB68D3181B783A2B24D0AC
:10370000184B1A68FB68D3181B782C2B1DD0154B4F
:103710001A68FB68D3181B78202B00D110E0114BDE
:103720001A68FB68D3181B78303B7A685343BA6831
:10373000D318BB607A6813009B009B185B007B600A
:10374000FB685A1EFA60002BCCD1064B1A683B6806
:103750000133D218034B1A60BB681800BD4604B091
:1037600080BDC0463809011080B584B000AF7860D4
:103770002B4B7A681A60FFF797FF0300FB60FB682A
:10378000284A944663448022520513431B78DBB2D7
:10379000BB60FFF789FF0300FB60BB68224A9446C9
:1037A0006344802252051343FA68D2B21A701F4B49
:1037B0001B78DBB2BB60BB68012B2BD11C4B1B7889
:1037C000DBB2BB60BB68002B24D11A4B1B78DBB289
:1037D000BB60BB68002B1DD1174B1B78DBB2012BE4
:1037E00016D1164B1B78DBB2FB60FB6801229343BA
:1037F000FB60124BFA68D2B21A70114B10220021F2
:10380000180007F0ADFD0C4B00221A7005F052FDB8
:10381000FEF7A8FEFEF7F8FEC046BD4604B080BD28
:1038200038090110164300001E4300001F4300101A
:1038300021430010204300103B4700100681001078
:10384000680C011080B584B000AF78600D4B7A68C9
:103850001A60FFF729FF02000E23FB181A800A4A9C
:103860000E23FB181B88DBB21370084A0E23FB18CB
:103870001B881B0A9BB2DBB21370C046BD4604B066
:1038800080BDC046380901101543001016430010D2
:1038900080B584B000AF7860094B7A681A60FFF792
:1038A00003FF02000E23FB181A80064A0E23FB18A2
:1038B0001B88DBB21370C046BD4604B080BDC04655
:1038C000380901102543001080B584B000AF78603E
:1038D000094B7A681A60FFF7E7FE02000E23FB1817
:1038E0001A80064A0E23FB181B88DBB21370C046F1
:1038F000BD4604B080BDC046380901102743001002
:1039000080B588B000AF786002E07B6801337B60EF
:103910007B681B783A2BF8D17B6801337B6002E02F
:103920007B6801337B607B681B78202BF8D07B6839
:103930001B78282B41D10023FB613AE07B680133DF
:103940007B607B681B78222BF8D17B6801337B601E
:103950000023BB611CE0BA6913009B009B185B004D
:103960009B182B4A99187B680B221800FFF7CEFD95
:10397000031E0AD0FB69274A9446634480225205FD
:103980001343BA69D2B21A7005E0BB690133BB6157
:10399000BB69062BDFDD02E07B6801337B607B685F
:1039A0001B78222BF8D17B6801337B60FB690133E4
:1039B000FB61FB69062BC4DD26E0174B7A681A60B1
:1039C00000237B611BE0FFF76FFE03009BB23B61AE
:1039D0007B69104A944663448022520513431B7846
:1039E000DBB2FB60FB680D4A9446634480225205BB
:1039F00013433A69D2B21A707B6901337B617B69E8
:103A0000062BE0DDFEF700FEC046BD4608B080BDD7
:103A100080B7000017430000380901101E43000062
:103A200080B584B000AF78600023FB600023BB60EA
:103A300002E07B6801337B607B681B78222BF8D126
:103A40000FE07B681B783033BB60FB685A1CFA6060
:103A50000B4A94466344802252051343BA68D2B29B
:103A60001A707B6801337B607B681B78222BE8D15E
:103A7000044BFA68D2B21A70C046BD4604B080BD8D
:103A8000DB020000DA02001080B582B000AF020055
:103A90003960FB1D1A70C046FB1D1B78142B2DD8F6
:103AA0009A001B4BD3181B689F463B681800FFF712
:103AB000C9FE28E03B681800FFF722FF23E03B68BF
:103AC0001800FFF701FF1EE03B681800FFF7E0FE5B
:103AD00019E0FFF7A3FD16E00E4B1B78DBB2092BB4
:103AE00010D1FFF76BFD0DE03B681800FFF73CFEBF
:103AF00009E03B681800FFF793FF04E0C04602E0CE
:103B0000C04600E0C046C046BD4602B080BDC046CB
:103B1000C8B800001243001090B585B000AF020095
:103B20003960BB1D1A800023FB600FE0FB683A6818
:103B3000D3181B780D2B06D1FB6801333A68D318D4
:103B40001B780A2B08D0FB680133FB60BB1D1A8869
:103B5000FB689A42EADC00E0C046BB1D1A88FB689D
:103B60009A424CD0FB6802333A68D3180B22BC1837
:103B70001800FFF7FDFC03002370FB6802333A686E
:103B8000D2180B23FB181B7811001800FFF77CFFDD
:103B9000FB680233FB600FE0FB683A68D3181B78C0
:103BA0000D2B06D1FB6801333A68D3181B780A2B1A
:103BB00008D0FB680133FB60BB1D1A88FB689A4282
:103BC000EADC00E0C046BB1D1A88FB689A4218D0A8
:103BD000BB1D1A88FB680233D31A032B12DDFB6866
:103BE0009BB2BA1D1288D31A9BB2023B98B2FB68F3
:103BF00002333A68D3181900FFF78EFF02E0C0467F
:103C000000E0C046BD4605B090BDC04680B582B05C
:103C100000AF02003960FB1D1A703B681B78BA2B9D
:103C20000AD1FB1D1B78013BDAB23B680133190056
:103C30001000FDF78FFB07E0FB1D1B789BB23A6875
:103C400011001800FFF768FFC046BD4602B080BDF6
:103C500080B500AF054B1B78DBB2092B02D1044BBA
:103C60000C221A70C046BD4680BDC04612430010EB
:103C7000004A0010B0B582B000AF02003960FB1DF1
:103C80001A70FB1D1B787F2B32D92F4CFB1D1B7824
:103C90001A000F231340083B99082B4AFB1D1B7881
:103CA00018000F230340083B9B0806339B00D318E2
:103CB00004331B68FA1D1278100003220240D20060
:103CC000FF2090400200D2431A403B689B01FF2036
:103CD0001840FB1D1B781D0003232B40DB00984080
:103CE00003001A438B1D9B00E31804331A6027E07E
:103CF000164CFB1D1B785BB29B081449FA1D127809
:103D000052B29208C03292005258F91D0978080048
:103D100003210140C900FF2088400100C943114030
:103D20003A689201FF201040FA1D12781500032214
:103D30002A40D200904002000A43C0339B001A512F
:103D4000C046BD4602B0B0BD00ED00E000E100E0BD
:103D500080B582B000AF78607B68013B0C4A93422B
:103D600001D9012310E00B4B7A68013A5A60012314
:103D70005B4203211800FFF77DFF064B00229A608B
:103D8000044B07221A6000231800BD4602B080BD14
:103D9000FFFFFF0010E000E080B582B000AF786068
:103DA000C046C046BD4602B080BDC04680B500AF2B
:103DB0000C4B0D4A1A600B4B1B680022DA60094B52
:103DC0001B680A4A9A60074B1B6801221A75054B4B
:103DD0001B6800221A60064B1800FFF7B9FFC046A7
:103DE000BD4680BD3C09011040090110993D00000D
:103DF0000053070080B586B000AFF860B9603B6043
:103E0000FB1D1A70FB68002B01D1002344E03B68C6
:103E1000002B03D1FB68224A9A6002E0FB683A68F3
:103E20009A6072B6FB1D1B785BB2002B09DAFB6847
:103E300000229A751B4B1A68BB68D218FB681A607F
:103E400008E0FB6801229A75174B1A68BB68D21804
:103E5000FB681A60BA68FB685A60FB6801221A7531
:103E6000FB1D1B783F221340DAB2FB685A75FB68D2
:103E7000180000F01DF8031E02D062B601230BE00B
:103E80000A4B1B687B61094BFA681A60074B1B6879
:103E90007A69DA6062B601231800BD4606B080BDBB
:103EA000993D00008C070110880701103C090110A2
:103EB00080B584B000AF78607B68002B01D100230F
:103EC00011E00B4B1B68FB6008E07A68FB689A42C4
:103ED00001D1012307E0FB68DB68FB60FB68DB685E
:103EE000002BF2D100231800BD4604B080BDC046AF
:103EF0003C09011080B584B000AF78607B68002B6E
:103F000001D1002324E0144B1B68FB601BE07A689E
:103F1000FB689A4214D17B689B7D012B07D17B689B
:103F20005A680E4B1B68D2187B681A6006E07B68E3
:103F30005A680B4B1B68D2187B681A60012307E094
:103F4000FB68DB68FB60FB68DB68002BDFD10023CC
:103F50001800BD4604B080BD3C090110880701105F
:103F60008C07011080B582B000AF00233B60094B85
:103F70001B687B6005E03B6801333B607B68DB6866
:103F80007B607B68DB68002BF5D1C046BD4602B084
:103F900080BDC0463C09011080B582B000AF2C4BFB
:103FA0001B78002B50D02A4B00221A70FFF7DAFF43
:103FB000284B1B687B6043E07B681B7D012B3CD159
:103FC0007B689B7D012B1CD17B681A68224B1B6888
:103FD0009A4232D87B685B7D002B04D17B68180045
:103FE00000F03EF806E07B685A681B4B1B68D2184D
:103FF0007B681A607B689A687B681B691800904729
:104000001BE07B681A68154B1B689A4215D87B68C1
:104010005B7D002B04D17B68180000F021F806E0DE
:104020007B685A680D4B1B68D2187B681A607B68E6
:104030009A687B681B69180090477B68DB687B6027
:104040007B68DB68002BB7D1C046BD4602B080BD9F
:10405000580901103C090110880701108C07011054
:1040600080B584B000AF78607B68002B01D100235D
:104070002BE07A68174B9A4201D1002325E0164BBA
:104080001B68BB60BB68FB601AE07A68FB689A42F9
:1040900011D1FB6800221A75BA68FB689A4204D1F4
:1040A000FB68DA680C4B1A6003E0FB68DA68BB68EF
:1040B000DA60012309E0FB68BB60FB68DB68FB603A
:1040C000FB68DB68002BE0D100231800BD4604B07C
:1040D00080BDC046400901103C09011080B582B086
:1040E00000AF0A4B1B687B6005E07B6800221A75F5
:1040F0007B68DB687B607B68DB68002BF5D1034B5A
:10410000034A1A60C046BD4602B080BD3C0901109A
:104110004009011080B500AF074B1B685A1C064BC5
:104120001A60064B01221A70054B1B685A1C044B7F
:104130001A60C046BD4680BD8807011058090110AD
:104140009007011080B582B000AF0200FB1D1A700D
:10415000FB1D1A78074B1B68D218064B1A60064BDA
:1041600000221A60054B01221A70C046BD4602B0FB
:1041700080BDC0468C07011090070110580901103E
:1041800080B500AFC046BD4680BDC04680B582B098
:1041900000AF78607B68FA2292005343180000F069
:1041A00005F8C046BD4602B080BDC04680B588B0A7
:1041B00000AF78600023BB61194B5B687B617A6854
:1041C00013005B009B18DB003B610023BB61144BB9
:1041D0009B68FB61124B9B68FB60FA68FB699A4223
:1041E000F8D0FA68FB699A4206D2FA69FB68D31ADA
:1041F000BA69D318BB6107E07A69FB68D21AFB6918
:10420000D318BA69D318BB61FB68FB61BA693B6913
:104210009A4200D2DEE7C046C046BD4608B080BD27
:1042200010E000E090B585B000AF7860434B2022ED
:104230000021180007F094F8404B7A681A610F23A8
:10424000FB1800221A705DE00F23FB181B783C4A14
:104250005C212C204343D3185B181B78202B4AD0B9
:104260000F23FB181B78364A5C212C204343D318BC
:104270005B181B78180003F0AFFA0F23FB181B78AC
:104280002F4A5C212C204343D3185B181B7818005D
:1042900003F0EAFA294B1B881AB20F23FB181B788C
:1042A000012199400B001BB213431BB29AB2234B5E
:1042B0001A80224B5B881AB20F23FB181B7801214E
:1042C00099400B001BB213431BB29AB21B4B5A808E
:1042D000BB680F22BA18127819495C202C2462435B
:1042E0008A181218127811003F220A4001219140C9
:1042F0000A001343BB600F23FB181A780F23FB1827
:1043000001321A700E4ABE23FF33D35C0F22BA1853
:1043100012789A4298D30B4B0B4801220421FFF7E5
:1043200069FD0A490A480A23022202F06FF80020B8
:1043300001F0B8FFC046BD4605B090BD8C09011024
:1043400050050110A5620000C0090110AC09011060
:104350007409011080B584B000AF0200FB1D1A7013
:10436000BB1D0A1C1A700C23FB18FA1D12781A7058
:104370000C23FB18BA1D12785A700C23FA18044B40
:104380001100180002F0BCF8C046BD4604B080BD64
:104390007409011080B584B000AF3B1D18803B004C
:1043A00019800C23FB1800221A80DE4BDA8ADD4BC1
:1043B0001A83DC4B5A8BDB4B9A830F23FB180022AA
:1043C0001A7001F09DFB0F23FB181B78D64A5C2165
:1043D0002C204343D3185B181B785BB2002B01DA07
:1043E00000F0D9FD0F23FB181B78CF4A5C212C204D
:1043F0004343D3185B181B781A003F2313401F2B2D
:1044000001D901F076FB9A00C84BD3181B689F4670
:104410003B1D1B781A000123134014D00C23FB18FA
:104420001B881BB20F22BA181278012191400A0092
:1044300012B2D24312B213401BB29AB20C23FB1831
:104440001A8001F056FB0C23FB181B881AB20F23AD
:10445000FB181B78012199400B001BB213431BB2C0
:104460009AB20C23FB181A8001F043FB3B1D1B780A
:104470001A000223134014D00C23FB181B881BB214
:104480000F22BA181278012191400A0012B2D243C9
:1044900012B213401BB29AB20C23FB181A8001F01F
:1044A00028FB0C23FB181B881AB20F23FB181B7860
:1044B000012199400B001BB213431BB29AB20C238B
:1044C000FB181A8001F015FB3B1D1B781A00042312
:1044D000134014D00C23FB181B881BB20F22BA18F0
:1044E0001278012191400A0012B2D24312B2134055
:1044F0001BB29AB20C23FB181A8001F0FAFA0C23B3
:10450000FB181B881AB20F23FB181B780121994056
:104510000B001BB213431BB29AB20C23FB181A8078
:1045200001F0E7FA3B1D1B781A000823134014D052
:104530000C23FB181B881BB20F22BA18127801211A
:1045400091400A0012B2D24312B213401BB29AB287
:104550000C23FB181A8001F0CCFA0C23FB181B88E3
:104560001AB20F23FB181B78012199400B001BB2D4
:1045700013431BB29AB20C23FB181A8001F0B9FA4C
:104580003B1D1B781A001023134014D00C23FB187A
:104590001B881BB20F22BA181278012191400A0021
:1045A00012B2D24312B213401BB29AB20C23FB18C0
:1045B0001A8001F09EFA0C23FB181B881AB20F23F5
:1045C000FB181B78012199400B001BB213431BB24F
:1045D0009AB20C23FB181A8001F08BFA3B1D1B7852
:1045E0001A002023134014D00C23FB181B881BB285
:1045F0000F22BA181278012191400A0012B2D24358
:1046000012B213401BB29AB20C23FB181A8001F0AD
:1046100070FA0C23FB181B881AB20F23FB181B78A7
:10462000012199400B001BB213431BB29AB20C2319
:10463000FB181A8001F05DFA3B1D1B781A0040231D
:10464000134014D00C23FB181B881BB20F22BA187E
:104650001278012191400A0012B2D24312B21340E3
:104660001BB29AB20C23FB181A8001F042FA0C23F9
:10467000FB181B881AB20F23FB181B7801219940E5
:104680000B001BB213431BB29AB20C23FB181A8007
:1046900001F02FFA3B1D1B785BB2002B14DA0C23C0
:1046A000FB181B881BB20F22BA1812780121914007
:1046B0000A0012B2D24312B213401BB29AB20C23B8
:1046C000FB181A8001F015FA0C23FB181B881AB28C
:1046D0000F23FB181B78012199400B001BB21343D9
:1046E0001BB29AB20C23FB181A8001F002FA3B1D90
:1046F0005B781A00012313401AD00C23FB181B8887
:104700001BB20F22BA181278012191400A0012B28E
:10471000D24312B213401BB29AB20C23FB181A8078
:1047200001F0E7F98C090110500501101CB90000D7
:104730000C23FB181B881AB20F23FB181B780121CE
:1047400099400B001BB213431BB29AB20C23FB1807
:104750001A8001F0CEF93B1D5B781A00022313404A
:1047600014D00C23FB181B881BB20F22BA18127826
:10477000012191400A0012B2D24312B213401BB27F
:104780009AB20C23FB181A8001F0B3F90C23FB1822
:104790001B881AB20F23FB181B78012199400B00CC
:1047A0001BB213431BB29AB20C23FB181A8001F000
:1047B000A0F93B1D5B781A000423134014D00C238E
:1047C000FB181B881BB20F22BA18127801219140E6
:1047D0000A0012B2D24312B213401BB29AB20C2397
:1047E000FB181A8001F085F90C23FB181B881AB2FC
:1047F0000F23FB181B78012199400B001BB21343B8
:104800001BB29AB20C23FB181A8001F072F93B1DFF
:104810005B781A000823134014D00C23FB181B8864
:104820001BB20F22BA181278012191400A0012B26D
:10483000D24312B213401BB29AB20C23FB181A8057
:1048400001F057F90C23FB181B881AB20F23FB1831
:104850001B78012199400B001BB213431BB29AB283
:104860000C23FB181A8001F044F93B1D5B781A00F9
:104870001023134014D00C23FB181B881BB20F22EB
:10488000BA181278012191400A0012B2D24312B232
:1048900013401BB29AB20C23FB181A8001F029F9BD
:1048A0000C23FB181B881AB20F23FB181B7801215D
:1048B00099400B001BB213431BB29AB20C23FB1896
:1048C0001A8001F016F93B1D5B781A002023134073
:1048D00014D00C23FB181B881BB20F22BA181278B5
:1048E000012191400A0012B2D24312B213401BB20E
:1048F0009AB20C23FB181A8001F0FBF80C23FB186A
:104900001B881AB20F23FB181B78012199400B005A
:104910001BB213431BB29AB20C23FB181A8001F08E
:10492000E8F83B1D5B781A004023134014D00C2399
:10493000FB181B881BB20F22BA1812780121914074
:104940000A0012B2D24312B213401BB29AB20C2325
:10495000FB181A8001F0CDF80C23FB181B881AB243
:104960000F23FB181B78012199400B001BB2134346
:104970001BB29AB20C23FB181A8001F0BAF83B1D47
:104980005B785BB2002B14DA0C23FB181B881BB27C
:104990000F22BA181278012191400A0012B2D243B4
:1049A00012B213401BB29AB20C23FB181A8001F00A
:1049B000A0F80C23FB181B881AB20F23FB181B78D6
:1049C000012199400B001BB213431BB29AB20C2376
:1049D000FB181A8001F08DF83B001B781A000123A8
:1049E000134014D00C23FB181B881BB20F22BA18DB
:1049F0001278012191400A0012B2D24312B2134040
:104A00001BB29AB20C23FB181A8001F072F80C2327
:104A1000FB181B881AB20F23FB181B780121994041
:104A20000B001BB213431BB29AB20C23FB181A8063
:104A300001F05FF83B001B781A000223134014D0EA
:104A40000C23FB181B881BB20F22BA181278012105
:104A500091400A0012B2D24312B213401BB29AB272
:104A60000C23FB181A8001F044F80C23FB181B8858
:104A70001AB20F23FB181B78012199400B001BB2BF
:104A800013431BB29AB20C23FB181A8001F031F8C1
:104A90003B001B781A000423134014D00C23FB188E
:104AA0001B881BB20F22BA181278012191400A000C
:104AB00012B2D24312B213401BB29AB20C23FB18AB
:104AC0001A8001F016F80C23FB181B881AB20F236A
:104AD000FB181B78012199400B001BB213431BB23A
:104AE0009AB20C23FB181A8001F003F83B001B78E4
:104AF0001A000823134014D00C23FB181B881BB288
:104B00000F22BA181278012191400A0012B2D24342
:104B100012B213401BB29AB20C23FB181A8000F099
:104B2000E8FF0C23FB181B881AB20F23FB181B7815
:104B3000012199400B001BB213431BB29AB20C2304
:104B4000FB181A8000F0D5FF3B001B781A001023D9
:104B5000134014D00C23FB181B881BB20F22BA1869
:104B60001278012191400A0012B2D24312B21340CE
:104B70001BB29AB20C23FB181A8000F0BAFF0C2368
:104B8000FB181B881AB20F23FB181B7801219940D0
:104B90000B001BB213431BB29AB20C23FB181A80F2
:104BA00000F0A7FF3B001B781A002023134014D00D
:104BB0000C23FB181B881BB20F22BA181278012194
:104BC00091400A0012B2D24312B213401BB29AB201
:104BD0000C23FB181A8000F08CFF0C23FB181B8899
:104BE0001AB20F23FB181B78012199400B001BB24E
:104BF00013431BB29AB20C23FB181A8000F079FF02
:104C00003B001B781A004023134014D00C23FB18E0
:104C10001B881BB20F22BA181278012191400A009A
:104C200012B2D24312B213401BB29AB20C23FB1839
:104C30001A8000F05EFF0C23FB181B881AB20F23AA
:104C4000FB181B78012199400B001BB213431BB2C8
:104C50009AB20C23FB181A8000F04BFF3B001B7824
:104C60005BB2002B14DA0C23FB181B881BB20F223B
:104C7000BA181278012191400A0012B2D24312B23E
:104C800013401BB29AB20C23FB181A8000F031FFBC
:104C90000C23FB181B881AB20F23FB181B78012169
:104CA00099400B001BB213431BB29AB20C23FB18A2
:104CB0001A8000F01EFF3B005B781A0001231340AE
:104CC00014D00C23FB181B881BB20F22BA181278C1
:104CD000012191400A0012B2D24312B213401BB21A
:104CE0009AB20C23FB181A8000F003FF0C23FB1868
:104CF0001B881AB20F23FB181B78012199400B0067
:104D00001BB213431BB29AB20C23FB181A8000F09B
:104D1000F0FE3B005B781A000223134014D00C23F2
:104D2000FB181B881BB20F22BA1812780121914080
:104D30000A0012B2D24312B213401BB29AB20C2331
:104D4000FB181A8000F0D5FE0C23FB181B881AB242
:104D50000F23FB181B78012199400B001BB2134352
:104D60001BB29AB20C23FB181A8000F0C2FE3B0063
:104D70005B781A000423134014D00C23FB181B8803
:104D80001BB20F22BA181278012191400A0012B208
:104D9000D24312B213401BB29AB20C23FB181A80F2
:104DA00000F0A7FE0C23FB181B881AB20F23FB1878
:104DB0001B78012199400B001BB213431BB29AB21E
:104DC0000C23FB181A8000F094FE3B005B781A005D
:104DD0000823134014D00C23FB181B881BB20F228E
:104DE000BA181278012191400A0012B2D24312B2CD
:104DF00013401BB29AB20C23FB181A8000F079FE04
:104E00000C23FB181B881AB20F23FB181B780121F7
:104E100099400B001BB213431BB29AB20C23FB1830
:104E20001A8000F066FE3B005B781A0010231340E6
:104E300014D00C23FB181B881BB20F22BA1812784F
:104E4000012191400A0012B2D24312B213401BB2A8
:104E50009AB20C23FB181A8000F04BFE0C23FB18AF
:104E60001B881AB20F23FB181B78012199400B00F5
:104E70001BB213431BB29AB20C23FB181A8000F02A
:104E800038FE3B005B781A002023134014D00C231B
:104E9000FB181B881BB20F22BA181278012191400F
:104EA0000A0012B2D24312B213401BB29AB20C23C0
:104EB000FB181A8000F01DFE0C23FB181B881AB289
:104EC0000F23FB181B78012199400B001BB21343E1
:104ED0001BB29AB20C23FB181A8000F00AFE3B00AA
:104EE0005B781A004023134014D00C23FB181B8856
:104EF0001BB20F22BA181278012191400A0012B297
:104F0000D24312B213401BB29AB20C23FB181A8080
:104F100000F0EFFD0C23FB181B881AB20F23FB18BF
:104F20001B78012199400B001BB213431BB29AB2AC
:104F30000C23FB181A8000F0DCFD3B005B785BB2B1
:104F4000002B14DA0C23FB181B881BB20F22BA1893
:104F50001278012191400A0012B2D24312B21340DA
:104F60001BB29AB20C23FB181A8000F0C2FD0C236E
:104F7000FB181B881AB20F23FB181B7801219940DC
:104F80000B001BB213431BB29AB20C23FB181A80FE
:104F9000C04600F0AEFD0F23FB181B78E44A5C21ED
:104FA0002C204343D3185B181B781A003F2313406F
:104FB0001F2B01D900F09DFD9A00DE4BD3181B6812
:104FC0009F463B1D1B781A000123134012D00C236F
:104FD000FB181B881AB20F23FB181B78012199407C
:104FE0000B001BB213431BB29AB20C23FB181A809E
:104FF00000F07FFD0C23FB181B881BB20F22BA1890
:105000001278012191400A0012B2D24312B2134029
:105010001BB29AB20C23FB181A8000F06AFD3B1DEC
:105020001B781A000223134012D00C23FB181B8894
:105030001AB20F23FB181B78012199400B001BB2F9
:1050400013431BB29AB20C23FB181A8000F051FDD7
:105050000C23FB181B881BB20F22BA1812780121EF
:1050600091400A0012B2D24312B213401BB29AB25C
:105070000C23FB181A8000F03CFD3B1D1B781A0026
:105080000423134012D00C23FB181B881AB20F23E1
:10509000FB181B78012199400B001BB213431BB274
:1050A0009AB20C23FB181A8000F023FD0C23FB1886
:1050B0001B881BB20F22BA181278012191400A00F6
:1050C00012B2D24312B213401BB29AB20C23FB1895
:1050D0001A8000F00EFD3B1D1B781A0008231340B8
:1050E00012D00C23FB181B881AB20F23FB181B7855
:1050F000012199400B001BB213431BB29AB20C233F
:10510000FB181A8000F0F5FC0C23FB181B881BB25F
:105110000F22BA181278012191400A0012B2D2432C
:1051200012B213401BB29AB20C23FB181A8000F083
:10513000E0FC3B1D1B781A001023134012D00C23F7
:10514000FB181B881AB20F23FB181B78012199400A
:105150000B001BB213431BB29AB20C23FB181A802C
:1051600000F0C7FC0C23FB181B881BB20F22BA18D7
:105170001278012191400A0012B2D24312B21340B8
:105180001BB29AB20C23FB181A8000F0B2FC3B1D34
:105190001B781A002023134012D00C23FB181B8805
:1051A0001AB20F23FB181B78012199400B001BB288
:1051B00013431BB29AB20C23FB181A8000F099FC1F
:1051C0000C23FB181B881BB20F22BA18127801217E
:1051D00091400A0012B2D24312B213401BB29AB2EB
:1051E0000C23FB181A8000F084FC3B1D1B781A006E
:1051F0004023134012D00C23FB181B881AB20F2334
:10520000FB181B78012199400B001BB213431BB202
:105210009AB20C23FB181A8000F06BFC0C23FB18CD
:105220001B881BB20F22BA181278012191400A0084
:1052300012B2D24312B213401BB29AB20C23FB1823
:105240001A8000F056FC3B1D1B785BB2002B12DA73
:105250000C23FB181B881AB20F23FB181B780121A3
:1052600099400B001BB213431BB29AB20C23FB18DC
:105270001A8000F03EFC0C23FB181B881BB20F2287
:10528000BA181278012191400A0012B2D24312B228
:1052900013401BB29AB20C23FB181A8000F029FCB1
:1052A0003B1D5B781A000123134012D00C23FB181E
:1052B0001B881AB20F23FB181B78012199400B00A1
:1052C0001BB213431BB29AB20C23FB181A8000F0D6
:1052D00010FC0C23FB181B881BB20F22BA18127883
:1052E000012191400A0012B2D24312B213401BB204
:1052F0009AB20C23FB181A8000F0FBFB3B1D5B7875
:105300001A000223134017D00C23FB181B881AB273
:105310000F23FB181B78012199400B001BB213438C
:105320001BB29AB20C23FB181A8000F0E2FBC046B5
:10533000500501109CB900000C23FB181B881BB200
:105340000F22BA181278012191400A0012B2D243FA
:1053500012B213401BB29AB20C23FB181A8000F051
:10536000C8FB3B1D5B781A000423134012D00C23AA
:10537000FB181B881AB20F23FB181B7801219940D8
:105380000B001BB213431BB29AB20C23FB181A80FA
:1053900000F0AFFB0C23FB181B881BB20F22BA18BE
:1053A0001278012191400A0012B2D24312B2134086
:1053B0001BB29AB20C23FB181A8000F09AFB3B1D1B
:1053C0005B781A000823134012D00C23FB181B88AB
:1053D0001AB20F23FB181B78012199400B001BB256
:1053E00013431BB29AB20C23FB181A8000F081FB06
:1053F0000C23FB181B881BB20F22BA18127801214C
:1054000091400A0012B2D24312B213401BB29AB2B8
:105410000C23FB181A806CE33B1D5B781A001023E9
:10542000134011D00C23FB181B881AB20F23FB1852
:105430001B78012199400B001BB213431BB29AB297
:105440000C23FB181A8054E30C23FB181B881BB297
:105450000F22BA181278012191400A0012B2D243E9
:1054600012B213401BB29AB20C23FB181A8040E30D
:105470003B1D5B781A002023134011D00C23FB182E
:105480001B881AB20F23FB181B78012199400B00CF
:105490001BB213431BB29AB20C23FB181A8028E3E9
:1054A0000C23FB181B881BB20F22BA18127801219B
:1054B00091400A0012B2D24312B213401BB29AB208
:1054C0000C23FB181A8014E33B1D5B781A00402361
:1054D000134011D00C23FB181B881AB20F23FB18A2
:1054E0001B78012199400B001BB213431BB29AB2E7
:1054F0000C23FB181A80FCE20C23FB181B881BB240
:105500000F22BA181278012191400A0012B2D24338
:1055100012B213401BB29AB20C23FB181A80E8E2B5
:105520003B1D5B785BB2002B11DA0C23FB181B8848
:105530001AB20F23FB181B78012199400B001BB2F4
:1055400013431BB29AB20C23FB181A80D1E20C232E
:10555000FB181B881BB20F22BA1812780121914048
:105560000A0012B2D24312B213401BB29AB20C23F9
:10557000FB181A80BDE23B001B781A000123134080
:1055800011D00C23FB181B881AB20F23FB181B78B1
:10559000012199400B001BB213431BB29AB20C239A
:1055A000FB181A80A5E20C23FB181B881BB20F22E4
:1055B000BA181278012191400A0012B2D24312B2F5
:1055C00013401BB29AB20C23FB181A8091E23B00E5
:1055D0001B781A000223134011D00C23FB181B88E0
:1055E0001AB20F23FB181B78012199400B001BB244
:1055F00013431BB29AB20C23FB181A8079E20C23D6
:10560000FB181B881BB20F22BA1812780121914097
:105610000A0012B2D24312B213401BB29AB20C2348
:10562000FB181A8065E23B001B781A000423134024
:1056300011D00C23FB181B881AB20F23FB181B7800
:10564000012199400B001BB213431BB29AB20C23E9
:10565000FB181A804DE20C23FB181B881BB20F228B
:10566000BA181278012191400A0012B2D24312B244
:1056700013401BB29AB20C23FB181A8039E23B008C
:105680001B781A000823134011D00C23FB181B8829
:105690001AB20F23FB181B78012199400B001BB293
:1056A00013431BB29AB20C23FB181A8021E20C237D
:1056B000FB181B881BB20F22BA18127801219140E7
:1056C0000A0012B2D24312B213401BB29AB20C2398
:1056D000FB181A800DE23B001B781A0010231340C0
:1056E00011D00C23FB181B881AB20F23FB181B7850
:1056F000012199400B001BB213431BB29AB20C2339
:10570000FB181A80F5E10C23FB181B881BB20F2233
:10571000BA181278012191400A0012B2D24312B293
:1057200013401BB29AB20C23FB181A80E1E13B0034
:105730001B781A002023134011D00C23FB181B8860
:105740001AB20F23FB181B78012199400B001BB2E2
:1057500013431BB29AB20C23FB181A80C9E10C2325
:10576000FB181B881BB20F22BA1812780121914036
:105770000A0012B2D24312B213401BB29AB20C23E7
:10578000FB181A80B5E13B001B781A004023134038
:1057900011D00C23FB181B881AB20F23FB181B789F
:1057A000012199400B001BB213431BB29AB20C2388
:1057B000FB181A809DE10C23FB181B881BB20F22DB
:1057C000BA181278012191400A0012B2D24312B2E3
:1057D00013401BB29AB20C23FB181A8089E13B00DC
:1057E0001B785BB2002B11DA0C23FB181B881AB252
:1057F0000F23FB181B78012199400B001BB21343A8
:105800001BB29AB20C23FB181A8072E10C23FB180E
:105810001B881BB20F22BA181278012191400A008E
:1058200012B2D24312B213401BB29AB20C23FB182D
:105830001A805EE13B005B781A000123134011D00F
:105840000C23FB181B881AB20F23FB181B780121AD
:1058500099400B001BB213431BB29AB20C23FB18E6
:105860001A8046E10C23FB181B881BB20F22BA18C2
:105870001278012191400A0012B2D24312B21340B1
:105880001BB29AB20C23FB181A8032E13B005B7802
:105890001A000223134011D00C23FB181B881AB2E4
:1058A0000F23FB181B78012199400B001BB21343F7
:1058B0001BB29AB20C23FB181A801AE10C23FB18B6
:1058C0001B881BB20F22BA181278012191400A00DE
:1058D00012B2D24312B213401BB29AB20C23FB187D
:1058E0001A8006E13B005B781A000423134011D0B4
:1058F0000C23FB181B881AB20F23FB181B780121FD
:1059000099400B001BB213431BB29AB20C23FB1835
:105910001A80EEE00C23FB181B881BB20F22BA186A
:105920001278012191400A0012B2D24312B2134000
:105930001BB29AB20C23FB181A80DAE03B005B78AA
:105940001A000823134011D00C23FB181B881AB22D
:105950000F23FB181B78012199400B001BB2134346
:105960001BB29AB20C23FB181A80C2E00C23FB185E
:105970001B881BB20F22BA181278012191400A002D
:1059800012B2D24312B213401BB29AB20C23FB18CC
:105990001A80AEE03B005B781A001023134011D050
:1059A0000C23FB181B881AB20F23FB181B7801214C
:1059B00099400B001BB213431BB29AB20C23FB1885
:1059C0001A8096E00C23FB181B881BB20F22BA1812
:1059D0001278012191400A0012B2D24312B2134050
:1059E0001BB29AB20C23FB181A8082E03B005B7852
:1059F0001A002023134011D00C23FB181B881AB265
:105A00000F23FB181B78012199400B001BB2134395
:105A10001BB29AB20C23FB181A806AE00C23FB1805
:105A20001B881BB20F22BA181278012191400A007C
:105A300012B2D24312B213401BB29AB20C23FB181B
:105A40001A8056E03B005B781A004023134011D0C7
:105A50000C23FB181B881AB20F23FB181B7801219B
:105A600099400B001BB213431BB29AB20C23FB18D4
:105A70001A803EE00C23FB181B881BB20F22BA18B9
:105A80001278012191400A0012B2D24312B213409F
:105A90001BB29AB20C23FB181A802AE03B005B78F9
:105AA0005BB2002B11DA0C23FB181B881AB20F23F0
:105AB000FB181B78012199400B001BB213431BB24A
:105AC0009AB20C23FB181A8012E00C23FB181B88D7
:105AD0001BB20F22BA181278012191400A0012B2AB
